:100000000C9434000C943E000C943E000C943E0082
:100010000C943E000C943E000C943E000C943E0068
:100020000C943E000C943E000C943E000C943E0058
:100030000C943E000C943E000C943E000C943E0048
:100040000C943E000C943E000C943E000C943E0038
:100050000C943E000C943E000C943E000C943E0028
:100060000C943E000C943E0011241FBECFEFD8E04C
:10007000DEBFCDBF0E9440000C9470000C940000C5
:10008000219A809180008268809380008091810015
:100090008A618093810087EA91E69093870080933C
:1000A000860023E233E18FEA94E0309389002093C5
:1000B00088004FEF53E264EF415050406040E1F759
:1000C00000C0000090938900809388004FEF53E2B6
:1000D00064EF415050406040E1F700C00000E5CFC0
:0400E000F894FFCFC2
:00000001FF
